:020000040000fa
:080000001006040000000000de
:020000040000fa
:10000800080400000c0400001004000014040000a0
:10001800180400001c040000200400002404000050
:10002800280400002c040000300400003404000000
:10003800380400003c0400004004000044040000b0
:10004800480400004c040000500400005404000060
:10005800580400005c040000600400006404000010
:10006800680400006c0400007004000074040000c0
:10007800780400007c040000800400008404000070
:10008800880400008c040000900400009404000020
:10009800980400009c040000a0040000a4040000d0
:1000a800a8040000ac040000b0040000b404000080
:1000b800b8040000bc040000c0040000c404000030
:1000c800c8040000cc040000d0040000d4040000e0
:1000d800d8040000dc040000e0040000e404000090
:1000e800e8040000ec040000f0040000f404000040
:1000f800f8040000fc0400000005000004050000ee
:10010800080500000c05000010050000140500009b
:10011800180500001c05000020050000240500004b
:10012800280500002c0500003005000034050000fb
:10013800380500003c0500004005000044050000ab
:10014800480500004c05000050050000540500005b
:10015800580500005c05000060050000640500000b
:10016800680500006c0500007005000074050000bb
:10017800780500007c05000080050000840500006b
:10018800880500008c05000090050000940500001b
:10019800980500009c050000a0050000a4050000cb
:1001a800a8050000ac050000b0050000b40500007b
:1001b800b8050000bc050000c0050000c40500002b
:1001c800c8050000cc050000d0050000d4050000db
:1001d800d8050000dc050000e0050000e40500008b
:1001e800e8050000ec050000f0050000f40500003b
:0801f800f8050000fc05000001
:020000040000fa
:1008100078080400000000007808040000000000d0
:1008200078080400000000007808040000000000c0
:1008300078080400000000007808040000000000b0
:1008400078080400000000007808040000000000a0
:100850007808040000000000780804000000000090
:100860007808040000000000780804000000000080
:100870007808040000000000780804000000000070
:100880007808040000000000720704000000000067
:100890003a0804000000000078080400000000008e
:1008a0007808040000000000d806040000000000e2
:1008b000f8060400000000004e08040000000000dc
:1008c0007808040000000000780804000000000020
:1008d0007808040000000000780804000000000010
:1008e0007808040000000000780804000000000000
:1008f0002807040000000000780804000000000041
:1009000078080400000000007808040000000000df
:1009100078080400000000007808040000000000cf
:1009200078080400000000007808040000000000bf
:1009300078080400000000005007040000000000d8
:10094000780804000000000078080400000000009f
:10095000780804000000000078080400000000008f
:10096000780804000000000078080400000000007f
:10097000780804000000000078080400000000006f
:10098000780804000000000078080400000000005f
:10099000780804000000000078080400000000004f
:1009a000780804000000000078080400000000003f
:1009b000780804000000000078080400000000002f
:1009c000780804000000000078080400000000001f
:1009d000780804000000000078080400000000000f
:1009e00078080400000000007808040000000000ff
:1009f00078080400000000007808040000000000ef
:100a000078080400000000007808040000000000de
:100a100078080400000000007808040000000000ce
:100a200078080400000000007808040000000000be
:100a300078080400000000007808040000000000ae
:100a4000780804000000000078080400000000009e
:100a5000780804000000000078080400000000008e
:100a6000780804000000000078080400000000007e
:100a7000780804000000000078080400000000006e
:100a8000780804000000000078080400000000005e
:100a9000780804000000000078080400000000004e
:100aa000780804000000000078080400000000003e
:100ab000780804000000000078080400000000002e
:100ac000780804000000000078080400000000001e
:100ad000780804000000000078080400000000000e
:100ae00078080400000000007808040000000000fe
:100af00078080400000000007808040000000000ee
:100b000078080400000000007808040000000000dd
:100b100078080400000000007808040000000000cd
:100b200078080400000000007808040000000000bd
:100b300078080400000000007808040000000000ad
:100b4000780804000000000078080400000000009d
:100b5000780804000000000078080400000000008d
:100b6000780804000000000078080400000000007d
:100b7000780804000000000078080400000000006d
:100b8000780804000000000078080400000000005d
:100b9000780804000000000078080400000000004d
:100ba000780804000000000078080400000000003d
:100bb000780804000000000078080400000000002d
:100bc000780804000000000078080400000000001d
:100bd000780804000000000078080400000000000d
:100be00078080400000000007808040000000000fd
:100bf00078080400000000007808040000000000ed
:020000040000fa
:0c0c000003010000de0000000000000006
:020000040000fa
:040c0c00ffffff00e7
:020000040000fa
:040c1000a5a5000096
:020000040000fa
:100c2000cfae2000eebe20000e01880000000000c4
:100c3000000020000000e00002003200000120005f
:100c400020028800140007002b0107000000e000cc
:100c500003003a00008c2100010020000200370050
:100c60000000200001002000810f70000100320010
:100c700014000700000020000000e0000200320025
:100c80000000020000000000041302000000000049
:100c90000040da000000fe004440a90000282000c7
:100ca0000000e0000300320000002000a0018800e6
:100cb0004440a800000006008a1f78008b1f7800bf
:100cc0000000060091018800800478000000eb001d
:100cd0001a003700e284440032a0b4009905ba003b
:100ce000e284440032a0b4009906ba00e2844400d1
:100cf00032a0b4000006eb00476fde00fd07b20033
:100d0000636ce10003003a00ebff07000000eb001a
:100d10000a003700606ce10004003a00005deb005f
:100d20008b05e900fdff3e00040037006168e1002b
:100d3000010032000086eb000b00070019c7ba0063
:100d40001905ba000e04e00003003a000a00e000b2
:100d5000e0ff3a0000000600fe07b2009e01880096
:100d60008a047800f5ff3700395dba008b05e90089
:100d70000c003200295dba008b05e9000800320042
:100d80000c00e00003003a00e284440032a0b4000a
:100d9000f5ff370019ddba008b05e900faff3a00cc
:100da0008904e800e184440032a0b4000000060099
:100db000809fbe00829fbe000700370003cabf00ad
:100dc000331180008080fb003290200003f1780016
:100dd0000040e80003eab7002202ab00f7ff3a0048
:100de0008560a9004f01be004f00be000040060014
:100df000809fbe00821f78000800370001c9bf0035
:100e00008080fb0012802000e2c078008100fb009f
:100e1000211188000040e80001e9b70000c8bf00c8
:100e20000149e300020032002322ab00f3ff32004d
:100e300000c8bf000149e30001003a009580a90005
:100e40008560a9004f0178004f00be0000400600f9
:100e5000801f7800000022008220ab0007003200d3
:100e6000ca02b60002003200922aec0001003700ec
:100e7000922aed008220a90006003700ca02b600bf
:100e800002003200922aed0001003700922aec00a5
:100e90008220a8008680a9004f007800004006004c
:100ea0008240ab0007003200d282ab000200320069
:100eb000922aed0001003700922aec008240a9003e
:100ec00006003700d282ab0002003200922aec000a
:100ed00001003700922aed008240a80087a0a900f7
:100ee000004006003600f800809fbe00829fbe00d2
:100ef000849fbe00869fbe00889fbe00cbc2ab0011
:100f00000a0032003e0807000000e00007003a0037
:100f1000e40aec0020578800c1122000810f500025
:100f200003003a008805070001003700e42aef00bb
:100f3000915480003257800031578800914ae20076
:100f400024003200818040000280500001a920006e
:100f500091407800e2cf500003003200d1252000fc
:100f6000810f500006003c0001a92000914078004c
:100f7000e1cf50000a003200e50f400008003d00bc
:100f8000cd42a800cd62a800d0a2a800d062a800df
:100f900040c0b30090eab700962aec000d0037007d
:100fa00001a9200091407800e4cf500009003a00e8
:100fb00051222000810f500006003c002103200038
:100fc000810f500003003400d0a2a900d062a90014
:100fd000906aef00e80aec004057880021e3a8007f
:100fe000670060001b003a0048558000f2032000b3
:100ff0000300200000578000115780003f000700c9
:101000008004eb004649dd00ca41de008301710027
:101010004641dd0000014100818149000202b0002b
:101020000380b0004a1add004610de0000007200a6
:10103000c618de000057880011578800451add00e9
:101040004b10de0000007200cb18de002a080700fb
:10105000aaeab70084e0a9004f04be004f03be0017
:101060004f02be004f01be004f00be003600f90027
:1010700000400600809fbe006054800071548000d4
:1010800061004000e080480060548800715488008e
:101090008500a9004f00be00004006000003f800d4
:1010a000980af9000203f8009a0af9000403f8000c
:1010b0009c0af9000603f8009e0af9000803f800ec
:1010c000a00af9000a03f800a20af9000c03f800cc
:1010d000a40af9000e03f800a60af9001003f800ac
:1010e000a80af90021e3a90085a0a9000040060094
:1010f0000040da000000fe0000000500020ab9000e
:10110000001bb9000200b8008100420081004300ca
:10111000000006008001780002003700b159780015
:101120000201e9000200e000fcff3a0000000600b6
:101130000c003700b0417800b1cf510006003200fa
:10114000100020009542780094cf52000b0031002f
:101150000080eb00000006000304e00006003200ff
:101160000201e90001027800800278000200e0003c
:10117000f0ff3a00000005000000eb000000060050
:020000040000fa
:101180004c5300000d000000534e00002c4c00009a
:10119000617500006e630000680d000000500000e3
:1011a0005a0d000000500000532c00003838000099
:1011b0004638000030350000383000003030000084
:1011c0003030000030310000453600004141000061
:1011d000434500003030000030320000413500004f
:1011e0004435000043350000314200000d0000008e
:1011f000504300002c380000384600003830000012
:101200003538000031300000303000003030000050
:1012100031450000364100004143000045300000e8
:1012200030300000324100003544000035430000fa
:1012300035310000422c0000304500002c31000008
:10124000340d000000500000432c0000383800002e
:1012500046380000303500003832000030300000e1
:1012600030300000303100004536000041410000c0
:1012700043450000303000003032000041350000ae
:101280004435000043350000314200002c3100009d
:10129000322c0000313400000d00000050430000eb
:1012a0002c38000038460000383000003538000087
:1012b0003330000030300000303000003145000095
:1012c000364100004143000045300000303000004e
:1012d0003241000035440000354300003531000044
:1012e000422c0000304100002c300000380d00007e
:1012f00000500000432c0000383800004638000041
:10130000303500003843000030300000303000003d
:1013100030310000453600004141000043450000e7
:10132000303000003032000041350000443500000c
:1013300043350000314200002c300000342c000006
:10134000313400000d000000504300002c38000034
:1013500038460000383000003538000044300000c6
:1013600030300000303000003145000036410000d0
:1013700041430000453000003030000032410000a1
:10138000354400003543000035310000422c000098
:10139000313000002c310000340d000000520000fc
:1013a0002c3100000d0000005348000057000000e1
:1013b00044490000534300004f4e00004e450000da
:1013c0004354000000520000454200004f4f00000f
:1013d0005400000024240000240000004b2c0000d6
:1013e000310d0000004300004f4e00004e4500004c
:1013f00043540000005400002c3000003030000046
:10140000432c000030300000304300002c3000003e
:1014100030300000302c000030320000303000004e
:101420000d000000434f00004e4e00005f500000d2
:1014300041520000414d00000057000056000000de
:10144000542c000030300000313000002c300000ff
:1014500030310000302c000030300000303000000f
:101460002c30000032300000300d0000005400002d
:101470002c30000030300000392c000030300000eb
:10148000303900002c30000030300000302c0000db
:1014900030320000303000000d000000542c0000fd
:1014a00030300000303600002c30000030300000ba
:1014b000362c000030300000303000002c300000ae
:1014c00032300000300d000000000000000000007d
:1014d0009b0100000100000000000000eb01000083
:1014e0000331000032330000434400002531000086
:1014f0003d490000556200006e7600007e840000c9
:101500008a8e00009294000096960000989a00003f
:101510009c9c00009ea00000a2a40000a6a80000c1
:10152000abae0000b0b20000b3b40000b6b800002b
:10153000baba0000bcbe0000bec00000c0c20000bd
:10154000c2c20000c4c40000c5c60000c6c6000078
:10155000c7c80000c8c90000caca0000caca000043
:10156000cbcc0000cccc0000cdce0000cece000015
:10157000cecf0000d0d00000d0d10000d2d20000e9
:10158000d2d30000d4d40000d4d60000d6d60000b8
:10159000d6d80000d8d90000dada0000dbdc000081
:1015a000dcde0000dedf0000e0e00000e2e2000040
:1015b000e3e40000000000000000000064100000f0
:1015c000b71d0000c82000006e3b0000ac300000da
:1015d000d926000090410000dc760000f4510000a4
:1015e0006b6b000058610000b24d00003c710000c0
:1015f0000550000020830000b8ed00004493000077
:101600000ff00000e8a30000d6d600008cb3000065
:1016100061cb0000b0c20000649b0000d4d2000087
:10162000d386000078e200000aa000001cf200004f
:10163000bdbd0000711600006217000068170000b1
:10164000cc170000ba170000ae170000ac1700005e
:10165000aa170000a81700009e17000094170000aa
:1016600092170000821700006c170000701700002e
:101670007417000078170000801700007c17000026
:020000040000fa
:1016800042e0a800d4c2a80042e0a9000000060081
:1016900010cabf00eb4f50004b00320011c0b30026
:1016a00012a1200001497800814f500007003a0044
:1016b00031002000008c28003905070010002000b0
:1016c00070508800122aef0000000600e24f500020
:1016d00005003a00a1002000408c280030050700da
:1016e00030c0b30030003700e34f500005003a002f
:1016f00031002000f08c28002905070040c0b3000d
:1017000029003700e44f500005003a004102200054
:10171000308d28002205070050c0b300220037009a
:10172000e54f500005003a00a1022000808f2800fc
:101730001b05070060c0b3001b003700e64f5000d8
:1017400005003a00a102200030922800140507008d
:1017500070c0b30014003700e74f500005003a0096
:10176000a1022000e09428000d05070080c0b3000e
:101770000d003700e84f500005003a00a10220009c
:10178000909728000605070090c0b30006003700b8
:10179000e94f500006003a00a1022000409a2800bc
:1017a000ff040700a0c0b30010eab7000000060065
:1017b000ea4f500004003a0041002000f09c28004d
:1017c000f7040700106aef00000006000002be00e8
:1017d00023002000c2a6200031002000409d2800e8
:1017e0000b05370022022000820f500011003a0042
:1017f000e28f50000f003a00b3a42000934178001c
:101800009150800002a728000000eb00d2cf5100c9
:1018100004003a00c4a620008551800005327800fb
:101820008100e8000080e800ea0f5000f7ff3a006e
:101830009150880000000600881f7800000478009e
:1018400008017800819d280020a4200038fe0700b0
:101850000000e00005003a006a6aef0021c0b30012
:10186000100020003f0507000e0037000801780037
:10187000319e280020a420002dfe07000000e0007b
:1018800008003a008040eb001000200035050700fa
:1018900031002000a09e2800c104070010c0b30042
:1018a00010eab7004f047800000006000200fa00ba
:1018b00020c0b300e0ff9f00150020000f82e90068
:1018c0002300200002a7200031002000409d2800b6
:1018d000cf0407000080fa00000006006acabf00bb
:1018e0000000060041002000e09e2800a30437000d
:1018f0001200fa00889fbe008a1f78000005780059
:1019000081047800020478000a017800319f2800e1
:1019100020a4200006fe07000000e00010003a00ae
:1019200010c0b3006aeab700a1cfb30010002000d6
:101930000605070060548000715480003050880014
:10194000415088000c2aef0061012000b09f280060
:1019500093040700c0002000505088008600370024
:101960000a01780021a1280020a42000f0fd070032
:101970000000e0000a003a00e28f540008003a003c
:1019800001a3200091407800c808dd0031cabf00e3
:101990000000fb00010070006050880076003700f6
:1019a0000a017800d1a1280020a42000e0fd070052
:1019b0000000e00070003a00e28f54006e003a0030
:1019c000805180006c0ae30056003a00e20f540098
:1019d00010003a0076cabf00ed4f500008003a00f0
:1019e000f0c4b3001a4ae30005003a006440500016
:1019f0001b4ae30002003a001206070047003700c6
:101a000022002000a1a120000000eb006b050700d0
:101a100042003700e10f540040003a0076cabf0090
:101a2000e34f500006003a00f8ef9f00a1aa200003
:101a300091407800e1ef9f008900780007003700af
:101a4000e54f500007003a007280570051a6280069
:101a50000b00090031587800c10020007280570047
:101a60002c003700e64f500024003a0061012000ae
:101a700000a228004a04070000122a00710020007a
:101a8000d0b79f00e1b79f00010037000060fe0063
:101a90005fb09700efb0970061015000e0815800ff
:101aa000d2b79f00e3b79f00e00f5000e08f5800cf
:101ab000f6ff3a008bff070000122a007100200099
:101ac000d0b79f00e1b79f00010037000060fe0023
:101ad0005fb09700efb0970061015000e0815800bf
:101ae000d2b79f00e3b79f00e00f5000e08f58008f
:101af000f6ff3a00c205070008003700e74f500024
:101b000006003a00bc050700c0b79f0089007800b6
:101b1000788057002dff070064ff0700766aef000a
:101b200015003700700ae30007003a00e10f540087
:101b300011003a00a1a120009140780060a7200088
:101b4000014878000c003700720ae3000a003a00ee
:101b50001acabf000801e9000004e00004003a00ce
:101b6000b1a120001000200014050700020037007a
:101b7000b1a120000b0207004f0578004f04be0002
:101b80000080fa0000000600881f78000204780038
:101b9000f30f5400010036003801200077eab70047
:101ba0000801780080a720005afd07008802e8009d
:101bb00074a720002300200042a72000310020004d
:101bc000409d2800120407004f0478000000060022
:101bd000804078007050800052c2b30082cf500025
:101be00026003a000000e000070032006454800044
:101bf00075548000a2508000b3508000820f5200c4
:101c0000838f5a000a0036001000200070508800b0
:101c1000402aef0060548000715480004006b000fc
:101c20000180b000a0508800b1508800000006007c
:101c3000e10f500003003a0000528000fefe070052
:101c40000c003700e20f50000a003200e30f500092
:101c50009d003a00c25080000201e8000201d1005c
:101c6000715180008100e8008100d10000528000a5
:101c70001fff07000e2aef000000060002a120004f
:101c800012417800e14f510012003a00eacf5000b3
:101c900010003a00e10f50000a003600e30f500038
:101ca00089003a00c0508000e30f500005003a0060
:101cb000715180008100e8008100d1000052800055
:101cc000c8fe07001000200070508800402aef0076
:101cd000000006000000e0000e003a0011cabf003c
:101ce000e24f500078003200e0c3b30080cf5000d4
:101cf00075003a0020c0b30011eab700e14f51006f
:101d000003003a001000200070508800402aef00c5
:101d10005ffe3700e10f500020003a00e14f510014
:101d20000e003a00e2c4b30082cf50000b003a002c
:101d300091508000e58f50000300320020c0b300b6
:101d400010eab700cbff3700b1c0b30002a12000fa
:101d50000149780021c0b30002043700c0c2b300bb
:101d600080cf500004003a0020002000705088000e
:101d70002e2aef00000006000052800072022000b0
:101d8000820f500050003e0022a420000171780014
:101d90000000e8000052880000000600e20f50003a
:101da00027003a00c0c2b30080cf500004003a00c0
:101db0003000200070508800182aef000000060054
:101dc00070518000ff0f50003f003e000001d10025
:101dd0000008a3000b00320003a32000e3417900b8
:101de00004c4b30084cf50000200340094ccb3008c
:101df0000100370004cdb30084c0400083c07000f0
:101e00000a0037008101fb0004c4b30084cf5000f6
:101e10000300340091fc2f00838040000200370053
:101e200001fd2f0083804000c408dd0003a32000d3
:101e3000817179000000e800705188000000060000
:101e4000e30f500020003a00c050800072022000d2
:101e5000820f50001c003e000001d1000008a300ca
:101e60000b003200a3a12000e341790004c4b300b9
:101e700084cf50000200340094ccb300010037003e
:101e800004cdb30084c0400083c070000a00370056
:101e90008101fb0004c4b30084cf50000300340070
:101ea00091fc2f00838040000200370001fd2f00cd
:101eb00083804000c408dd00a3a120008171790067
:101ec0000000e800c0508800000006000200fa0090
:101ed000889fbe006054800071548000220320005f
:101ee000820f5000e08f580005003600040ae2001f
:101ef00003003a00e2fd0700100020002050880097
:101f00001100200066805700080307000000e00071
:101f1000020032002ff897002dff0700305080009c
:101f200041508000e00f5000e08f5800390032002f
:101f300068548000795480000004540081845c005f
:101f400050508000ec0f50000a003a00800c200036
:101f5000800f5400e08f5c002e00360061012000ed
:101f600070a328000e030700900020005050880046
:101f70000a003700e90f500008003a00c2122000a2
:101f8000820f5400e08f5c002200360061012000c7
:101f9000e0a42800020307000a2aef00803e200088
:101fa000800f5400e08f5c001a0036000c0ae2003b
:101fb0001800320080c12f0008004000a1cfb300fc
:101fc0000078a300010032008040eb0010002000e8
:101fd0005e03070060508000640050003200200063
:101fe000110009000280d8004800dd00803eb000ea
:101ff0008000eb00800f5400818f5c0005003600ec
:10200000062aef00082aef00a1cfb300100020003d
:102010004e0307004f04be000080fa0000000600d7
:10202000d4c2a900d522a800d4e2a900d0c2a90038
:10203000d122a900d0e2a900000006008000eb0038
:102040000108bb0020042400003b88000500fc00c0
:1020500050052000303b8800a00a2000303b88005b
:1020600061e7a8000000000000000000000006007a
:10207000881f780008002200040037000060fe007e
:1020800008007800edff07000820b00000c027001e
:10209000800f5400f9ff39004f047800000006005b
:1020a000889fbe000282ea008382ea00510020007d
:1020b0001a003700b081fb00f6002000848369001d
:1020c00086836300c23bdd00a2ad28008703410088
:1020d0004c2cdd004422de0004027400c42ade0021
:1020e00037046a00a7846a000802be000803630080
:1020f000c419de00068369004233dd000601410099
:10210000cc2cdd004422de0004827400c42ade00f0
:1021100032036a00a2836a000602be008100e90061
:10212000e4ff3a000480ea008580ea004f04be0024
:10213000000006001001ba001080ba00800078008c
:10214000020078000000060061c7a80001ff2f0010
:10215000043b8000848060003100b300013b8800b4
:102160000208bb000388bb000500fc0050052000ee
:10217000303b8800a00a2000303b880061e7a800bf
:102180000000000000000000000006000800fa0047
:10219000889fbe00b44ae2007f003200b46aef00bc
:1021a0008040eb0030002000e802070011c0b300bf
:1021b00020002000eb020700adff07001000240004
:1021c000003b880041e6a900b62aef00280037004e
:1021d000d0558800c05580000080ea008180ea0068
:1021e000e055880032012000a1ab200020c0b300e0
:1021f00065fe070088382100090020006054800037
:10220000715480000004440081844c0013003700a6
:102210000060fe002dff0700d5020700f07f2000c0
:10222000b80ae3000d003a000500fc00500520004c
:10223000303b8800a00a2000303b880061e7a800fe
:10224000000000000000000010002400003b880097
:10225000b62aec00b82aef00050037006054800071
:1022600071548000880f5000898f5800e8ff3900b2
:10227000b055800079558000890f5000d4ff390097
:1022800008002200c74cdd00888444006011b800bb
:10229000090037009800ba00a1bf9f001880ba005b
:1022a000b0bf9f006c8057007dff07000001be009b
:1022b0000884e8000060fe00890f5400f5ff390033
:1022c0008055800091558000800f5100818f59000a
:1022d0002a003a0032012000a1ab200040c0b30028
:1022e00029fe070000122a0071002000c0bf9f00d5
:1022f000d1bf9f00010037000060fe004fb897007b
:10230000dfb8970061015000e0815800c2bf9f0014
:10231000d3bf9f00e00f5000e08f5800f6ff3a0057
:1023200070fd070000122a0071002000c0bf9f004e
:10233000d1bf9f00010037000060fe004fb897003a
:10234000dfb8970061015000e0815800c2bf9f00d4
:10235000d3bf9f00e00f5000e08f5800f6ff3a0017
:1023600012672100030020000000220076ff070012
:10237000b40307000000fe0007003700ba2aef0090
:10238000e2558800f355880032012000a1ab2000ff
:1023900050c0b300fcfd07004f04be000080fa00ef
:1023a000000006008043780001037800f30f51001d
:1023b0005a003a00e1cf53002c003a001682fb008d
:1023c00096429000c82add00050172002642900066
:1023d0000482fb00b6429000c82add00850172002d
:1023e0001467210015672100840f5100858f590063
:1023f0004a003a00864990008381fb00164990000c
:102400004811dd00028171000300220004c0270092
:102410000302520003062000110009000302d80045
:1024200080017800830f51003c003e007255880007
:10243000464290000482fb00d6429000c82add008c
:1024400005017200664290000482fb00f640900095
:10245000c808dd008101720082558800935588000c
:1024600040ab20000748780000000600e3cf53008f
:102470002a003a00964078006fc060008080fb0020
:10248000ea8f500025003c00b25580001682fb0008
:102490004422de00ef016100830f52001f003a006a
:1024a000130020008119dd0003007800b82ab7006e
:1024b000660ab90084017800860078004611dd00c4
:1024c00002814100020141000000220000014100a0
:1024d0000000eb008302400004042000848f5200bf
:1024e0000e003200a1429000c82add001142900087
:1024f0000482fb00050272000409bb003142900017
:102500000482fb000489bb000000e800e380400077
:102510000281e800e60f5000eeff3a0000000600de
:10252000c4e2a800c0e2a900000006009680a8004e
:1025300097a0a8009560a80094e0a8009500a800c6
:1025400095a0a800000006009420ef009620ef0060
:10255000a5000700e3fc0700d482a900cda2a900d2
:10256000d082a900c9a2a900c4e2a900c502a8009e
:10257000c482a800c522a800cca2a8000060fe006a
:10258000feff3700881f780050fe0700f8010700a3
:10259000fefe0700a8aa2000184478000884fb006b
:1025a00060558000880f50000f003600ee0f540079
:1025b00004003e0021c0b30030002000e901070004
:1025c00005003700fd0f540006003e00a1cfb30008
:1025d00030002000dd0107008040eb0020002000db
:1025e000da01070068558800850207000000e00056
:1025f000020032007c0007000000fe000060fe00c8
:102600004f047800000006000800fa00889fbe0012
:102610004440a8003420ef0081e0a900f0f32f002f
:102620004427b60083e0a9004027ab000400320035
:102630004007ab0002003a000060fe00feff3700da
:10264000b7ff0700083a80004644de00614464009a
:102650004027ef002ca3ef0067020700b20107003c
:10266000d2000700a20107006dfe0700b5020700b7
:10267000f8020700620207000000e00003003200d9
:10268000aaff070062020700afff0700e102070090
:102690000000e000250032000804e00023003a00ba
:1026a00000242400f1002000a0bf9f00b1bf9f00c4
:1026b000010037000060fe00cbc2ab000900320011
:1026c0002fb89700bfb8970061015000e081580013
:1026d000a2bf9f00b3bf9f00e00f5000e08f5800e3
:1026e000f4ff3a00cbc2ab0010003a0000b4240063
:1026f000c1042000c0bf9f00d1bf9f000100370070
:102700000060fe004fb89700dfb8970061015000ed
:10271000e0815800c2bf9f00d3bf9f00e00f500070
:10272000e08f5800f6ff3a0087ff07008040eb007b
:102730000000eb00850107008040eb001000200046
:1027400082010700a1cfb300200020007f01070015
:102750008040eb00300020007c01070073ff070081
:10276000bd0007006044b800110037006104440058
:10277000e0844c0083ff0700106a2800110020004d
:10278000800f5400818f5c0009003a00160007009a
:102790008040eb00100020006c0107008040eb003f
:1027a0000000eb006f01070076ff0700feff370017
:1027b000b30007000000e000ecff3a00040207004d
:1027c0008040eb00300020006001070021c0b30012
:1027d00020002000630107006aff0700feff3700aa
:1027e000b00c88000000060042e0a800cd42a8001e
:1027f000cd62a800d0a2a900d062a9000000eb0021
:10280000f7ff0700906aef0042e0a9000000060011
:1028100042e0a800cd42a800cd62a900d0a2a80045
:10282000d062a80010c0b30090eab70042e0a9004f
:102830000000060042e0a800cd42a900cd62a80039
:10284000d0a2a800d062a80020c0b30090eab700d0
:1028500042e0a900000006000400fa00881f78008a
:10286000a8ad200018447800ca82ab0011003200e5
:10287000e24f540002003200e44f54003f003a009f
:1028800090548000cf80de00e2568000f356800036
:102890000201400083814800e2568800f356880018
:1028a000e4ff07000844e900a3ad20008849780050
:1028b00032003700e54f540003003a00d4ff070010
:1028c00040c0b300daeab700dacabf00e34f5000f5
:1028d0000b003a0090548000cf80de00e25680006a
:1028e000f35680000201400083814800e2568800d0
:1028f000f3568800c6ff070020c0b300daeab7002d
:10290000dacabf00e14f50001c003a009254800028
:10291000e0568000f1568000cf91de0000004100bb
:1029200081804900e0568800f1568800d0bf9f00a2
:10293000e1bf9f00acff0700da6aef00945480000b
:10294000c402b0005fb89700efb89700e00f5000e6
:10295000e08f580002003d0063004000e080480026
:10296000ce0add004201de00028172000201520047
:102970009254880010c0b30091eab7004f04780069
:102980000080fa000000060042e0a800cd42a80046
:10299000cd62a800d0a2a800d062a80030c0b300c9
:1029a00090eab70042e0a900000006008eff070091
:1029b0000000eb008aff0700f10f2e002036800098
:1029c0000081600000202100020070002036880095
:1029d000c942a900c962a900d0a2a900d062a90079
:1029e000d4a2a900d462a900f00120009221b7006e
:1029f00092e1a90000c021009021b70080ff2f00c4
:102a00009001b6006000b300800c8800f03f200009
:102a1000a00c8800c882a800d082a800c9a2a80083
:102a200000348000808060000040210001007000c0
:102a30000034880000fe2f008206b600d000b300ec
:102a40001034880070002000ae20b700000720007e
:102a5000b220b70000000600ca82ab0003003200bb
:102a600074ff070050c0b3000200370068ff070082
:102a700040c0b300daeab700000c200058ff37006e
:102a800075ff0700dacabf000080fb000000ea0003
:102a90004f00de00000006000001eb0020003700c0
:102aa00005802000954278000583fb00b041780046
:102ab0000382fb004422de00e94f52000200360090
:102ac0007443b000010037000443b00017802000b9
:102ad00084737b008542e80004802000054a78006a
:102ae00004802000144278008482fb006f83610020
:102af000efc16100e90f5300020034007343b000de
:102b0000010037000343b0001680200003f37a0071
:102b10000442e80003802000844978000201e800b4
:102b2000810f5100deff390000000600000378002d
:102b30000001eb000900370023902000934178004a
:102b40000382fb0035902000655b7a008341e8003a
:102b500020902000034878000201e80003cabf006b
:102b60000249e30002003200828f5000f2ff3a0077
:102b70002222a900020078000000060005003700ac
:102b80002322ab00feff3a003001fb002211880037
:102b90008100e9000100e000f9ff3a0000000600b2
:102ba0000a00370002802000124178008281fb0079
:102bb00014802000b042780005f279000241e8005c
:102bc00003802000824978008100e9000100e000d4
:102bd000f4ff3a0000c8bf000149e3000a003200d8
:102be0002322ab0008003a0001c9bf008080fb002f
:102bf00012802000e2c078008100fb0021118800d3
:102c00000040e80001e9b7009580a8000000060038
:102c1000889fbe008a9fbe00040478008505780066
:102c20000a00370004802000144278008482fb00f0
:102c300016802000b043780007f37a000442e800d1
:102c400005802000844a78008100e9000100e0004e
:102c5000f4ff3a0000c8bf008080fb00198020000c
:102c6000cac2b3008af478000040e80000e8b70068
:102c70000200be0088ff070000c8bf008080fb0084
:102c80008af478000040e80000e8b7008b00780084
:102c90000800780080ff070000c8bf008080fb00ac
:102ca000d2c0b30082f478000040e80000e8b7002a
:102cb00000c8bf000149e300090032002322ab0035
:102cc00007003a0001c9bf008080fb00e9c078001e
:102cd0008100fb00211188000040e80001e9b700f5
:102ce0009580a8004f05be004f04be0000000600fe
:102cf00000fe2f00a406b6000030a000203588009a
:102d0000f00f2e00c606b6000030b3003036880043
:102d100021e2a8002062a8002342a800200220008f
:102d20004011880000000600c502a800c482a80067
:102d3000c522a900cca2a900c102a900c082a90095
:102d4000c122a900c8a2a9000000060080c1eb00b2
:102d5000e2ac20000371780022ad20000171780000
:102d600000000600e2ac20000171780000000600bf
:102d7000889fbe006654800077548000e10f4300b6
:102d8000e08f4b002b003200d4ac200060ad20005f
:102d90008000eb0052088000d4417800e1cf410070
:102da000180032008381fb000604be008301e900a5
:102db000030033008904d1000884d300fbff3700ef
:102dc00088017800f31fb200f50f2000858f5100b5
:102dd00005003c006501410015c0b300830f5100a0
:102de00006003c00040037000310b10015c0b3001a
:102df000830f5100010035008042eb000548780048
:102e00000800370023ad2000e3c278008582fb0074
:102e100013c0b300850f510001003d008041eb005d
:102e2000034878008100e8000000e800e48f5000cb
:102e3000d8ff3a0042e0a80061ad20009140780040
:102e4000e1806000c808dd00201680000080a1003d
:102e5000008070002016880071ad2000914078003d
:102e6000e1806000c408dd00201680000040a10061
:102e7000008070002016880081ad2000914078000d
:102e8000e1806000c908dd00201680000090a100ec
:102e9000008070002016880091ad200091407800dd
:102ea000e1806000c508dd00601680000050a100d0
:102eb000008070006016880042e0a9004f04be0048
:102ec000000006006054800071548000000006007d
:102ed0009054800000000600aacabf00000006004f
:102ee000a054800000000600b054800000000600de
:102ef000c054800000000600505788000000060003
:102f0000a0fd3700f38f500004003e00010178005f
:102f1000800078000040eb001bfb3700942aec0097
:102f2000000006006dfa3700e30f500001003e007c
:102f30008cff3700942aec0000000600e30f5000dd
:102f400001003e0081ff3700942aec0000000600db
:102f50007dfd370037fe37002dfe3700f13f2000a2
:102f6000810f500001003e001dfe3700942aec0046
:102f70000000060090cabf00e14f5000030032007d
:102f800090cabf00e24f500001003a007efe3700b9
:102f9000942aec000000060090cabf00e14f5000e8
:102fa0000300320090cabf00e24f500001003a0017
:102fb0000dfe3700942aec000000060053578000f5
:102fc0000300e000010032000300010000000600e1
:102fd000a0b12800f05f88000000220055fc070027
:102fe00012672100820f5000e08f580001003a0064
:102ff0000404070000000600c142a800000006000b
:10300000101680004a00de0061006000000006002b
:10301000889fbe008040eb000000eb004bff0700e4
:103020008040eb001000200048ff07006044b8001b
:103030002c003700aacabf0092c1b3000440bc00f4
:10304000a3002000110009000301d800804078008f
:10305000200020003dff0700aacabf0092c1b300b4
:103060000440bc0063ff2f00110009000301d800d9
:10307000e64050003000200034ff0700cbc2ab0018
:103080001200320061044400e0844c00009f2400e0
:1030900021002000800f5400818f5c0004003a0062
:1030a000a1cfb3000000eb0028ff07000b003700a2
:1030b00000d4200031002000800f5400818f5c007c
:1030c00006003a004e000700040037008040eb0085
:1030d0000000eb001dff07006044b80024ff07005c
:1030e0000060fe00c6ff07000000e000d1ff3a00cc
:1030f0004f04be000000060000027800a10020007e
:103100008001eb0030062000008141000201d10067
:1031100006e02f000403430065a72800e54279007c
:103120008582fb00850f5300020036008201780083
:1031300001003700020078008100e900f2ff3a0048
:1031400000000600409c200060088800f0fc2f0072
:1031500082088000820060000150a0008108880081
:1031600011e1a800a10f2000710888001201b6002b
:103170000050a0009008880013e1a800000006009d
:020000040000fa
:103180008c0a00002200000000000000040a000079
:103190008800000000000000000800000402000099
:1031a00000000000da0a0000060000000000000035
:1031b000ce0a00000c00000000000000e00a000041
:1031c000060000000200000000590000002c010071
:1031d000e60a00000400000000000000ae0a000043
:1031e0002000000000000000ea0a000002000000c9
:0831f0000000000000000000d7
:020000040000fa
:1031f80060602000cdfb37006011b80080602000bf
:10320800cffb07000000fe000000060080602000e1
:10321800c6fb0700525a2a0003002000020168007a
:10322800838168008280710001f0a7008100ea00b4
:103238008100e9004f08de0000000600525a2a000b
:103248000300200080602000bdfb3700000e200036
:103258002023b7002043a8002343a80030fc2f00f8
:103268002203b6000050a0001019880000f02100c9
:103278002423b700f0c3b30024e3b70010c02f0025
:1032880060198800e03f20008019880021e3a80029
:04329800000006002c
:020000040000fa
:020000040001f9
:0257f000d5ffe3
:020000040000fa
:020000040001f9
:0257f400ffb400
:020000040000fa
:020000040001f9
:0257f800ae2bd6
:020000040000fa
:020000040001f9
:0257fc00e63e87
:00000001FF
