:020000040000fa
:080000001006040000000000de
:020000040000fa
:10000800080400000c0400001004000014040000a0
:10001800180400001c040000200400002404000050
:10002800280400002c040000300400003404000000
:10003800380400003c0400004004000044040000b0
:10004800480400004c040000500400005404000060
:10005800580400005c040000600400006404000010
:10006800680400006c0400007004000074040000c0
:10007800780400007c040000800400008404000070
:10008800880400008c040000900400009404000020
:10009800980400009c040000a0040000a4040000d0
:1000a800a8040000ac040000b0040000b404000080
:1000b800b8040000bc040000c0040000c404000030
:1000c800c8040000cc040000d0040000d4040000e0
:1000d800d8040000dc040000e0040000e404000090
:1000e800e8040000ec040000f0040000f404000040
:1000f800f8040000fc0400000005000004050000ee
:10010800080500000c05000010050000140500009b
:10011800180500001c05000020050000240500004b
:10012800280500002c0500003005000034050000fb
:10013800380500003c0500004005000044050000ab
:10014800480500004c05000050050000540500005b
:10015800580500005c05000060050000640500000b
:10016800680500006c0500007005000074050000bb
:10017800780500007c05000080050000840500006b
:10018800880500008c05000090050000940500001b
:10019800980500009c050000a0050000a4050000cb
:1001a800a8050000ac050000b0050000b40500007b
:1001b800b8050000bc050000c0050000c40500002b
:1001c800c8050000cc050000d0050000d4050000db
:1001d800d8050000dc050000e0050000e40500008b
:1001e800e8050000ec050000f0050000f40500003b
:0801f800f8050000fc05000001
:020000040000fa
:1008100078080400000000007808040000000000d0
:1008200078080400000000007808040000000000c0
:1008300078080400000000007808040000000000b0
:1008400078080400000000007808040000000000a0
:100850007808040000000000780804000000000090
:100860007808040000000000780804000000000080
:100870007808040000000000780804000000000070
:100880007808040000000000720704000000000067
:100890003a0804000000000078080400000000008e
:1008a0007808040000000000d806040000000000e2
:1008b000f8060400000000004e08040000000000dc
:1008c0007808040000000000780804000000000020
:1008d0007808040000000000780804000000000010
:1008e0007808040000000000780804000000000000
:1008f0002807040000000000780804000000000041
:1009000078080400000000007808040000000000df
:1009100078080400000000007808040000000000cf
:1009200078080400000000007808040000000000bf
:1009300078080400000000005007040000000000d8
:10094000780804000000000078080400000000009f
:10095000780804000000000078080400000000008f
:10096000780804000000000078080400000000007f
:10097000780804000000000078080400000000006f
:10098000780804000000000078080400000000005f
:10099000780804000000000078080400000000004f
:1009a000780804000000000078080400000000003f
:1009b000780804000000000078080400000000002f
:1009c000780804000000000078080400000000001f
:1009d000780804000000000078080400000000000f
:1009e00078080400000000007808040000000000ff
:1009f00078080400000000007808040000000000ef
:100a000078080400000000007808040000000000de
:100a100078080400000000007808040000000000ce
:100a200078080400000000007808040000000000be
:100a300078080400000000007808040000000000ae
:100a4000780804000000000078080400000000009e
:100a5000780804000000000078080400000000008e
:100a6000780804000000000078080400000000007e
:100a7000780804000000000078080400000000006e
:100a8000780804000000000078080400000000005e
:100a9000780804000000000078080400000000004e
:100aa000780804000000000078080400000000003e
:100ab000780804000000000078080400000000002e
:100ac000780804000000000078080400000000001e
:100ad000780804000000000078080400000000000e
:100ae00078080400000000007808040000000000fe
:100af00078080400000000007808040000000000ee
:100b000078080400000000007808040000000000dd
:100b100078080400000000007808040000000000cd
:100b200078080400000000007808040000000000bd
:100b300078080400000000007808040000000000ad
:100b4000780804000000000078080400000000009d
:100b5000780804000000000078080400000000008d
:100b6000780804000000000078080400000000007d
:100b7000780804000000000078080400000000006d
:100b8000780804000000000078080400000000005d
:100b9000780804000000000078080400000000004d
:100ba000780804000000000078080400000000003d
:100bb000780804000000000078080400000000002d
:100bc000780804000000000078080400000000001d
:100bd000780804000000000078080400000000000d
:100be00078080400000000007808040000000000fd
:100bf00078080400000000007808040000000000ed
:020000040000fa
:0c0c000003010000de0000000000000006
:020000040000fa
:040c0c00ffffff00e7
:020000040000fa
:040c1000a5a5000096
:020000040000fa
:100c20004fae2000eebe20000e0188000000000044
:100c3000000020000000e00002003200000120005f
:100c400020028800140007002b0107000000e000cc
:100c500003003a0040772100010020000200370025
:100c60000000200001002000810f70000100320010
:100c700014000700000020000000e0000200320025
:100c80000000020000000000141302000000000039
:100c90000040da000000fe004440a900a02120002e
:100ca0000000e0000300320000002000a0018800e6
:100cb0004440a800000006008a1f78008b1f7800bf
:100cc0000000060091018800800478000000eb001d
:100cd0001a003700e284440032a0b4009905ba003b
:100ce000e284440032a0b4009906ba00e2844400d1
:100cf00032a0b4000006eb00476fde00fd07b20033
:100d0000636ce10003003a00ebff07000000eb001a
:100d10000a003700606ce10004003a00005deb005f
:100d20008b05e900fdff3e00040037006168e1002b
:100d3000010032000086eb000b00070019c7ba0063
:100d40001905ba000e04e00003003a000a00e000b2
:100d5000e0ff3a0000000600fe07b2009e01880096
:100d60008a047800f5ff3700395dba008b05e90089
:100d70000c003200295dba008b05e9000800320042
:100d80000c00e00003003a00e284440032a0b4000a
:100d9000f5ff370019ddba008b05e900faff3a00cc
:100da0008904e800e184440032a0b4000000060099
:100db000809fbe00829fbe000700370003cabf00ad
:100dc000331180008080fb003290200003f1780016
:100dd0000040e80003eab7002202ab00f7ff3a0048
:100de0008560a9004f01be004f00be000040060014
:100df000809fbe00821f78000800370001c9bf0035
:100e00008080fb0012802000e2c078008100fb009f
:100e1000211188000040e80001e9b70000c8bf00c8
:100e20000149e300020032002322ab00f3ff32004d
:100e300000c8bf000149e30001003a009580a90005
:100e40008560a9004f0178004f00be0000400600f9
:100e5000801f7800000022008220ab0007003200d3
:100e6000ca02b600020032008a2aec0001003700f4
:100e70008a2aed008220a90006003700ca02b600c7
:100e8000020032008a2aed00010037008a2aec00b5
:100e90008220a8008680a9004f007800004006004c
:100ea0008240ab0007003200d282ab000200320069
:100eb0008a2aed00010037008a2aec008240a9004e
:100ec00006003700d282ab00020032008a2aec0012
:100ed000010037008a2aed008240a80087a0a900ff
:100ee000004006003600f800809fbe00829fbe00d2
:100ef000849fbe00869fbe00889fbe00cbc2ab0011
:100f00000a003200980707000000e00007003a00de
:100f1000dc0aec00e0568800c1122000810f50006e
:100f200003003a009605070001003700dc2aef00b5
:100f300051548000f2568000f1568800894ae20040
:100f400024003200818040000280500081a82000ef
:100f500091407800e2cf500003003200d1252000fc
:100f6000810f500006003c0081a8200091407800cd
:100f7000e1cf50000a003200e50f400008003d00bc
:100f8000cd42a800cd62a800d0a2a800d062a800df
:100f900040c0b30088eab7008e2aec000d0037008d
:100fa00081a8200091407800e4cf500009003a0069
:100fb00051222000810f500006003c002103200038
:100fc000810f500003003400d0a2a900d062a90014
:100fd000886aef00e00aec000057880021e3a800cf
:100fe000670060001b003a0008558000f2032000f3
:100ff00003002000c0568000d15680003f0007004b
:101000008004eb004649dd00ca41de008301710027
:101010004641dd0000014100818149000202b0002b
:101020000380b0004a1add004610de0000007200a6
:10103000c618de00c0568800d1568800451add006b
:101040004b10de0000007200cb18de0084070700a2
:10105000a2eab70084e0a9004f04be004f03be001f
:101060004f02be004f01be004f00be003600f90027
:1010700000400600809fbe00205480003154800054
:1010800061004000e080480020548800315488000e
:101090008500a9004f00be00004006000003f800d4
:1010a000900af9000203f800920af9000403f8001c
:1010b000940af9000603f800960af9000803f800fc
:1010c000980af9000a03f8009a0af9000c03f800dc
:1010d0009c0af9000e03f8009e0af9001003f800bc
:1010e000a00af90021e3a90085a0a900004006009c
:1010f0000040da000000fe0000000500020ab9000e
:10110000001bb9000200b8008100420081004300ca
:10111000000006008001780002003700b159780015
:101120000201e9000200e000fcff3a0000000600b6
:101130000c003700b0417800b1cf510006003200fa
:10114000100020009542780094cf52000b0031002f
:101150000080eb00000006000304e00006003200ff
:101160000201e90001027800800278000200e0003c
:10117000f0ff3a00000005000000eb000000060050
:020000040000fa
:101180004c5300000d000000534e00002c4c00009a
:10119000617500006e630000680d000000500000e3
:1011a0005a0d000000500000532c00003838000099
:1011b0004638000030350000383000003030000084
:1011c0003030000030310000453600004141000061
:1011d000434500003030000030320000413500004f
:1011e0004435000043350000314200000d0000008e
:1011f000504300002c380000384600003830000012
:101200003538000031300000303000003030000050
:1012100031450000364100004143000045300000e8
:1012200030300000324100003544000035430000fa
:1012300035310000422c0000304500002c31000008
:10124000340d000000500000432c0000383800002e
:1012500046380000303500003832000030300000e1
:1012600030300000303100004536000041410000c0
:1012700043450000303000003032000041350000ae
:101280004435000043350000314200002c3100009d
:10129000322c0000313400000d00000050430000eb
:1012a0002c38000038460000383000003538000087
:1012b0003330000030300000303000003145000095
:1012c000364100004143000045300000303000004e
:1012d0003241000035440000354300003531000044
:1012e000422c0000304100002c300000380d00007e
:1012f00000500000432c0000383800004638000041
:10130000303500003843000030300000303000003d
:1013100030310000453600004141000043450000e7
:10132000303000003032000041350000443500000c
:1013300043350000314200002c300000342c000006
:10134000313400000d000000504300002c38000034
:1013500038460000383000003538000044300000c6
:1013600030300000303000003145000036410000d0
:1013700041430000453000003030000032410000a1
:10138000354400003543000035310000422c000098
:10139000313000002c310000340d000000520000fc
:1013a0002c3100000d0000005348000057000000e1
:1013b00044490000534300004f4e00004e450000da
:1013c0004354000000520000454200004f4f00000f
:1013d0005400000024240000240000004b2c0000d6
:1013e000310d0000004300004f4e00004e4500004c
:1013f00043540000005700005600000000000000a9
:10140000009b0000010100000000000000eb000054
:1014100001030000313200003343000044000000ab
:10142000253100003d490000556200006e76000045
:101430007e8400008a8e0000929400009696000040
:10144000989a00009c9c00009ea00000a2a40000ae
:10145000a6a80000abae0000b0b20000b3b400001c
:10146000b6b80000baba0000bcbe0000bec00000a2
:10147000c0c20000c2c20000c4c40000c5c6000053
:10148000c6c60000c7c80000c8c90000caca00001c
:10149000caca0000cbcc0000cccc0000cdce0000ee
:1014a000cece0000cecf0000d0d00000d0d10000c2
:1014b000d2d20000d2d30000d4d40000d4d6000091
:1014c000d6d60000d6d80000d8d90000dada00005d
:1014d000dbdc0000dcde0000dedf0000e0e000001e
:1014e000e2e20000e3e40000000000000000000071
:1014f00064100000b71d0000c82000006e3b000013
:10150000ac300000d926000090410000dc760000dd
:10151000f45100006b6b000058610000b24d0000f8
:101520003c7100000550000020830000b8ed000071
:10153000449300000ff00000e8a30000d6d600009e
:101540008cb3000061cb0000b0c20000649b0000bf
:10155000d4d20000d386000078e200000aa0000088
:101560001cf20000bdbd0000711600001616000040
:101570001c160000801600006e16000062160000a7
:10158000601600005e1600005c1600005216000097
:10159000481600004616000036160000201600000f
:1015a00024160000281600002c1600003416000037
:0415b00030160000f1
:020000040000fa
:1015b40042e0a800d4c2a80042e0a900000006004e
:1015c40008cabf00eb4f50004b00320011c0b300fb
:1015d40092a0200001497800814f500007003a0092
:1015e40031002000008c2800c604070010002000f1
:1015f400305088000a2aef0000000600e24f500035
:1016040005003a00a1002000408c2800bd0407001a
:1016140030c0b30030003700e34f500005003a00fb
:1016240031002000f08c2800b604070040c0b3004d
:1016340029003700e44f500005003a004102200021
:10164400308d2800af04070050c0b30022003700db
:10165400e54f500005003a00a1022000808f2800c9
:10166400a804070060c0b3001b003700e64f500019
:1016740005003a00a102200030922800a1040700ce
:1016840070c0b30014003700e74f500005003a0063
:10169400a1022000e09428009a04070080c0b3004f
:1016a4000d003700e84f500005003a00a102200069
:1016b400909728009304070090c0b30006003700f9
:1016c400e94f500006003a00a1022000409a280089
:1016d4008c040700a0c0b30008eab70000000600ad
:1016e400ea4f500004003a0041002000f09c28001a
:1016f40084040700086aef00000006000002be0030
:101704002300200042a6200031002000409d280034
:101714009804370022022000820f500011003a0082
:10172400e28f50000f003a0033a420009341780068
:101734005150800092a028000000eb00d2cf51004d
:1017440004003a0044a62000455180000532780088
:101754008100e8000080e800ea0f5000f7ff3a003b
:101764005150880000000600881f780000047800ab
:1017740008017800819d2800a0a320006bfe0700cb
:101784000000e00005003a00626aef0021c0b300e7
:1017940010002000cc0407000e0037000801780078
:1017a400319e2800a0a3200060fe07000000e00096
:1017b40008003a008040eb0010002000c20407003b
:1017c40031002000a09e28004e04070010c0b30082
:1017d40008eab7004f047800000006000200fa008f
:1017e40020c0b300e0ff9f00150020000f82e90035
:1017f4002300200082a6200031002000409d280004
:101804005c0407000080fa000000060062cabf0002
:101814000000060041002000e09e2800300437004c
:101824001200fa00889fbe008a1f78000005780025
:1018340081047800020478000a017800319f2800ae
:10184400a0a3200039fe07000000e00006003a00d3
:1018540010c0b30062eab70080c0eb0010002000a3
:1018640093040700630037000a017800b19f280041
:10187400a0a320002dfe07000000e0005d003a0058
:10188400e28f54005b003a0040518000640ae30098
:1018940043003a00e20f540010003a006ecabf0041
:1018a400ed4f500008003a00f0c4b300124ae300c0
:1018b40005003a0064405000134ae30002003a0075
:1018c400b9050700340037002200200021a12000c0
:1018d4000000eb00120507002f003700e10f540051
:1018e4002d003a006ecabf00e34f500005003a00d5
:1018f400f8ef9f00a2cabf00e0ef9f0089007800c4
:1019040007003700e54f500007003a00f280570007
:10191400e09f28000b000900b0587800c1002000a7
:10192400728057001a003700e64f500012003a0048
:10193400b8ff070000122a0071002000d0b79f00f2
:10194400e1b79f00010037000060fe005fb0970020
:10195400efb0970061015000e0815800d2b79f00ba
:10196400e3b79f00e00f5000e08f5800f6ff3a0005
:101974007c05070008003700e74f500006003a00d6
:1019840076050700c0b79f0021002000788057002b
:101994005aff070091ff07006e6aef001500370039
:1019a400680ae30007003a00e10f540011003a000e
:1019b40021a1200091407800e0a620000148780091
:1019c4000c0037006a0ae3000a003a0012cabf009a
:1019d4000801e9000004e00004003a0031a12000fd
:1019e40010002000ce0407000200370031a12000bf
:1019f400cb0107004f0578004f04be000080fa00b9
:101a040000000600881f780002047800f30f5400d9
:101a140001003600380120006feab70008017800a1
:101a240000a72000bafd07008802e800f4a6200001
:101a340023002000c2a6200031002000409d280081
:101a4400cc0307004f0478000000060080407800b3
:101a54003050800052c2b30082cf500026003a00ba
:101a64000000e00007003200245480003554800058
:101a74006250800073508000820f5200838f5a009e
:101a84000a0036001000200030508800382aef0089
:101a940020548000315480004006b0000180b00022
:101aa400605088007150880000000600e10f50006b
:101ab40003003a00c05180002bff07000c003700e0
:101ac400e20f50000a003200e30f50009d003a007c
:101ad400825080000201e8000201d10031518000ef
:101ae4008100e8008100d100c05180004cff070054
:101af400062aef000000060082a0200012417800b0
:101b0400e14f510012003a00eacf500010003a00b1
:101b1400e10f50000a003600e30f500089003a003c
:101b240080508000e30f500005003a0031518000de
:101b34008100e8008100d100c0518000f5fe07005b
:101b44001000200030508800382aef000000060002
:101b54000000e0000e003a0009cabf00e24f500046
:101b640078003200e0c3b30080cf500075003a0023
:101b740020c0b30009eab700e14f510003003a0066
:101b84001000200030508800382aef008cfe370007
:101b9400e10f500020003a00e14f51000e003a00de
:101ba400e2c4b30082cf50000b003a0051508000d1
:101bb400e58f50000300320020c0b30008eab700ec
:101bc400cbff3700b1c0b30082a0200001497800e8
:101bd40021c0b300bc033700c0c2b30080cf5000a3
:101be40004003a002000200030508800262aef002c
:101bf40000000600c051800072022000820f5000d5
:101c040050003e00a2a32000017178000000e8000b
:101c1400c051880000000600e20f500027003a007f
:101c2400c0c2b30080cf500004003a00300020004e
:101c340030508800102aef00000006003051800068
:101c4400ff0f50003f003e000001d1000008a30038
:101c54000b00320083a22000e341790004c4b300e6
:101c640084cf50000200340094ccb300010037004c
:101c740004cdb30084c0400083c070000a00370064
:101c84008101fb0004c4b30084cf5000030034007e
:101c940091fc2f00838040000200370001fd2f00db
:101ca40083804000c408dd0083a220008171790094
:101cb4000000e8003051880000000600e30f5000e7
:101cc40020003a008050800072022000820f5000f1
:101cd4001c003e000001d1000008a3000b003200ec
:101ce40023a12000e341790004c4b30084cf500051
:101cf4000200340094ccb3000100370004cdb300db
:101d040084c0400083c070000a0037008101fb00da
:101d140004c4b30084cf50000300340091fc2f00ae
:101d2400838040000200370001fd2f0083804000c3
:101d3400c408dd0023a12000817179000000e800bf
:101d440080508800000006000200fa002054800041
:101d54003154800022032000820f5000e08f58008d
:101d640005003600040ae20003003a0010fe0700f2
:101d74001000200020508800110020000f80e9008e
:101d8400c30207000000e000020032006ff8970071
:101d94002eff07000080fa0000000600d4c2a9004c
:101da400d522a800d4e2a900d0c2a900d122a9005a
:101db400d0e2a900000006008000eb000108bb008f
:101dc40020042400003b88000500fc00500520008e
:101dd400303b8800a00a2000303b880061e7a8005f
:101de400000000000000000000000600881f7800ca
:101df40008002200040037000060fe00080078009c
:101e0400edff07000820b00000c02700800f540039
:101e1400f9ff39004f04780000000600889fbe00d7
:101e24000282ea008382ea00510020001a0037008f
:101e3400b081fb00f6002000848369008683630080
:101e4400c23bdd0042a72800870341004c2cdd0083
:101e54004422de0004027400c42ade0037046a004f
:101e6400a7846a000802be0008036300c419de00e8
:101e7400068369004233dd0006014100cc2cdd00fd
:101e84004422de0004827400c42ade0032036a00a5
:101e9400a2836a000602be008100e900e4ff3a0062
:101ea4000480ea008580ea004f04be0000000600ba
:101eb4001001ba001080ba00800078000200780097
:101ec4000000060061c7a80001ff2f00043b80004a
:101ed400848060003100b300013b88000208bb002d
:101ee4000388bb000500fc0050052000303b88003f
:101ef400a00a2000303b880061e7a8000000000031
:101f040000000000000006000800fa00889fbe00e0
:101f1400ac4ae2007f003200ac6aef008040eb0084
:101f240030002000e202070011c0b30020002000ae
:101f3400e5020700adff070010002400003b880005
:101f440041e6a900ae2aef0028003700905588002a
:101f5400805580000080ea008180ea00a055880056
:101f64003201200021ab200020c0b300a5fe0700f1
:101f7400883821000900200020548000315480005a
:101f84000004440081844c00130037000060fe000c
:101f94006dff0700cf020700f07f2000b00ae300c6
:101fa4000d003a000500fc0050052000303b88007d
:101fb400a00a2000303b880061e7a8000000000070
:101fc4000000000010002400003b8800ae2aec0052
:101fd400b02aef00050037002054800031548000ff
:101fe400880f5000898f5800e8ff39007055800031
:101ff40039558000890f5000d4ff390008002200b1
:10200400c74cdd00888444006011b8000900370023
:102014009800ba00a1bf9f001880ba00b0bf9f000b
:102024006c8057007dff07000001be000884e800b3
:102034000060fe00890f5400f5ff39004055800010
:1020440051558000800f5100818f59002a003a00b9
:102054003201200021ab200040c0b30069fe07001c
:1020640000122a0071002000c0bf9f00d1bf9f0052
:10207400010037000060fe004fb89700dfb89700fa
:1020840061015000e0815800c2bf9f00d3bf9f0090
:10209400e00f5000e08f5800f6ff3a00ddfd070026
:1020a40000122a0071002000c0bf9f00d1bf9f0012
:1020b400010037000060fe004fb89700dfb89700ba
:1020c40061015000e0815800c2bf9f00d3bf9f0050
:1020d400e00f5000e08f5800f6ff3a00126721002d
:1020e400030020000000220076ff0700ae03070073
:1020f4000000fe0007003700b22aef00a255880056
:10210400b35588003201200021ab200050c0b30039
:102114003cfe07004f04be000080fa0000000600e9
:102124008043780001037800f30f51005a003a000d
:10213400e1cf53002c003a001682fb009642900037
:10214400c82add0005017200264290000482fb00cb
:10215400b6429000c82add00850172001467210090
:1021640015672100840f5100858f59004a003a00f9
:10217400864990008381fb00164990004811dd00d8
:10218400028171000300220004c0270003025200f0
:1021940003062000110009000302d8008001780022
:1021a400830f51003c003e003255880046429000a7
:1021b4000482fb00d6429000c82add0005017200ab
:1021c400664290000482fb00f6409000c808dd00df
:1021d400810172004255880053558800c0aa20002e
:1021e4000748780000000600e3cf53002a003a00b5
:1021f400964078006fc060008080fb00ea8f50003a
:1022040025003c00725580001682fb004422de004b
:10221400ef016100830f52001f003a0013002000f9
:102224008119dd0003007800b02ab700660ab900fe
:1022340084017800860078004611dd0002814100a7
:102244000201410000002200000141000000eb00f7
:102254008302400004042000848f52000e003200e8
:10226400a1429000c82add00114290000482fb00c4
:10227400050272000409bb00314290000482fb0095
:102284000489bb000000e800e38040000281e8000c
:10229400e60f5000eeff3a0000000600b00c880084
:1022a4000000060042e0a800cd42a800cd62a800cc
:1022b400d0a2a900d062a9000000eb00f7ff07003c
:1022c400886aef0042e0a9000000060042e0a8008e
:1022d400cd42a800cd62a900d0a2a800d062a80077
:1022e40010c0b30088eab70042e0a900000006006d
:1022f40042e0a800cd42a900cd62a800d0a2a80067
:10230400d062a80020c0b30088eab70042e0a90068
:10231400000006000400fa00881f780028ad2000a1
:1023240018447800ca82ab0011003200e24f540016
:1023340002003200e44f54003f003a005054800041
:10234400cf80de00a2568000b35680000201400018
:1023540083814800a2568800b3568800e4ff070032
:102364000844e90023ad2000884978003200370092
:10237400e54f540003003a00d4ff070040c0b30007
:10238400d2eab700d2cabf00e34f50000b003a00b4
:1023940050548000cf80de00a2568000b3568000e7
:1023a4000201400083814800a2568800b356880089
:1023b400c6ff070020c0b300d2eab700d2cabf00ec
:1023c400e14f50001c003a0052548000a056800097
:1023d400b1568000cf91de000000410081804900a9
:1023e400a0568800b1568800d0bf9f00e1bf9f006f
:1023f400acff0700d26aef0054548000c402b0005e
:102404005fb89700efb89700e00f5000e08f5800d6
:1024140002003d0063004000e0804800ce0add0079
:102424004201de000281720002015200525488000f
:1024340010c0b30089eab7004f0478000080fa00a6
:102444000000060042e0a800cd42a800cd62a8002a
:10245400d0a2a800d062a80030c0b30088eab700b8
:1024640042e0a900000006008eff07000000eb0018
:102474008aff0700f10f2e002036800000816000e3
:10248400002021000200700020368800c942a90003
:10249400c962a900d0a2a900d062a900d4a2a9004f
:1024a400d462a900f00120009221b70092e1a900b2
:1024b40000c021009021b70080ff2f009001b600da
:1024c4006000b300800c8800f03f2000a00c88005e
:1024d400c882a800d082a800c9a2a8000034800045
:1024e40080806000004021000100700000348800fa
:1024f40000fe2f008206b600d000b300103488001e
:1025040070002000ae20b70000072000b220b70002
:1025140000000600ca82ab000300320074ff07000b
:1025240050c0b3000200370068ff070040c0b3008a
:10253400d2eab700000c200058ff370075ff0700ef
:10254400d2cabf000080fb000000ea004f00de009a
:1025540000000600c4e2a800c0e2a90000000600d2
:102564009680a80097a0a8009560a80094e0a80011
:102574009500a80095a0a800000006009420ef0094
:102584009620ef0047ff0700a2fc0700d482a900b1
:10259400cda2a900d082a900c9a2a900c4e2a900c1
:1025a400c502a800c482a800c522a800cca2a80025
:1025b4000060fe00feff3700881f7800e2fd070080
:1025c4004401070050fe070028aa200018447800a0
:1025d4000884fb0020558000880f50000900320059
:1025e400fd0f540006003e00a1cfb30030002000d0
:1025f4002f0107008040eb00200020002c01070081
:1026040028558800d70107000000e00002003200ce
:1026140024ff07000000fe000060fe004f04780065
:10262400000006000800fa00889fbe004440a8008d
:102634003420ef0081e0a900f0f32f004427b60016
:1026440083e0a9004027ab00040032004007ab0040
:1026540002003a000060fe00feff3700bdff0700e5
:10266400083a80004644de00614464004027ef00dd
:102674002ca3ef00b9010700040107007aff07004b
:10268400f4000700c5fd0700070207004a0207001f
:10269400b40107000000e00003003200b0ff0700af
:1026a400b4010700b5ff0700330207000000e00093
:1026b400250032000804e00023003a00002424002e
:1026c400f1002000a0bf9f00b1bf9f0001003700b0
:1026d4000060fe00cbc2ab00090032002fb89700a7
:1026e400bfb8970061015000e0815800a2bf9f006d
:1026f400b3bf9f00e00f5000e08f5800f4ff3a0092
:10270400cbc2ab0010003a0000b42400c104200086
:10271400c0bf9f00d1bf9f00010037000060fe00d2
:102724004fb89700dfb8970061015000e08158006e
:10273400c2bf9f00d3bf9f00e00f5000e08f58003e
:10274400f6ff3a008dff07008040eb000000eb002d
:10275400d70007008040eb0010002000d4000700e1
:10276400a1cfb30020002000d10007008040eb007f
:1027740030002000ce00070079ff070065ff070046
:102784006044b8001100370061044400e0844c0048
:1027940089ff0700106a280011002000800f5400f0
:1027a400818f5c0009003a00befe07008040eb0008
:1027b40010002000be0007008040eb000000eb008a
:1027c400c10007007cff0700feff37005bff070026
:1027d4000000e000ecff3a00560107008040eb00e7
:1027e40030002000b200070021c0b3002000200008
:1027f400b500070070ff0700feff37000001eb0083
:102804002000370005802000954278000583fb00f6
:10281400b04178000382fb004422de00e94f5200fd
:10282400020036007443b000010037000443b000d6
:102834001780200084737b008542e8000480200018
:10284400054a780004802000144278008482fb004a
:102854006f836100efc16100e90f5300020034008f
:102864007343b000010037000343b000168020001a
:1028740003f37a000442e8000380200084497800ce
:102884000201e800810f5100deff3900000006005c
:10289400000378000001eb000900370023902000ba
:1028a400934178000382fb0035902000655b7a0039
:1028b4008341e80020902000034878000201e800ea
:1028c40003cabf000249e30002003200828f5000b5
:1028d400f2ff3a002222a90002007800000006005c
:1028e400050037002322ab00feff3a003001fb0055
:1028f400221188008100e9000100e000f9ff3a009c
:10290400000006000a00370002802000124178000f
:102914008281fb0014802000b042780005f2790027
:102924000241e80003802000824978008100e90028
:102934000100e000f4ff3a0000c8bf000149e300d1
:102944000a0032002322ab0008003a0001c9bf008c
:102954008080fb0012802000e2c078008100fb0030
:10296400211188000040e80001e9b7009580a80023
:1029740000000600889fbe008a9fbe000404780001
:10298400850578000a00370004802000144278008e
:102994008482fb0016802000b043780007f37a009d
:1029a4000442e80005802000844a78008100e900a0
:1029b4000100e000f4ff3a0000c8bf008080fb0083
:1029c40019802000cac2b3008af478000040e800ed
:1029d40000e8b7000200be0088ff070000c8bf007f
:1029e4008080fb008af478000040e80000e8b7002b
:1029f4008b0078000800780080ff070000c8bf0043
:102a04008080fb00d2c0b30082f478000040e8006c
:102a140000e8b70000c8bf000149e3000900320024
:102a24002322ab0007003a0001c9bf008080fb00ed
:102a3400e9c078008100fb00211188000040e80013
:102a440001e9b7009580a8004f05be004f04be0001
:102a54000000060000fe2f00a406b6000030a0000f
:102a640020358800f00f2e00c606b6000030b300f3
:102a74003036880021e2a8002062a8002342a80082
:102a8400200220004011880000000600c502a800b2
:102a9400c482a800c522a900cca2a900c102a90031
:102aa400c082a900c122a900c8a2a9000000060092
:102ab40080c1eb0062ac200003717800a2ac20005e
:102ac400017178000000060062ac200001717800fa
:102ad40000000600889fbe00265480003754800002
:102ae400e10f4300e08f4b002b00320054ac200078
:102af400e0ac20008000eb0052088000d441780054
:102b0400e1cf4100180032008381fb000604be00bf
:102b14008301e900030033008904d1000884d30051
:102b2400fbff370088017800f31fb200f50f200087
:102b3400858f510005003c006501410015c0b300bc
:102b4400830f510006003c00040037000310b1005d
:102b540015c0b300830f5100010035008042eb0023
:102b64000548780008003700a3ac2000e3c27800d1
:102b74008582fb0013c0b300850f510001003d00a6
:102b84008041eb00034878008100e8000000e80081
:102b9400e48f5000d8ff3a0042e0a800e1ac2000e6
:102ba40091407800e1806000c808dd0020168000b4
:102bb4000080a1000080700020168800f1ac200085
:102bc40091407800e1806000c408dd002016800098
:102bd4000040a100008070002016880001ad200094
:102be40091407800e1806000c908dd002016800073
:102bf4000090a100008070002016880011ad200014
:102c040091407800e1806000c508dd006016800016
:102c14000050a100008070006016880042e0a90006
:102c24004f04be0000000600205480003154800090
:102c3400000006005054800000000600a2cabf0035
:102c440000000600605480000000060070548000fc
:102c54000000060080548000000006001057880021
:102c64000000060054fe3700f38f500004003e00bd
:102c740001017800800078000040eb0061fb370020
:102c84008c2aec0000000600e0fa3700e30f500045
:102c940001003e008cff37008c2aec000000060087
:102ca400e30f500001003e0081ff37008c2aec0046
:102cb4000000060031fe37008dfd370083fd37002c
:102cc400f13f2000810f500001003e0073fd3700ea
:102cd4008c2aec000000060088cabf00e14f5000b7
:102ce4000300320088cabf00e24f500001003a00de
:102cf400d4fd37008c2aec000000060088cabf000f
:102d0400e14f50000300320088cabf00e24f500078
:102d140001003a0063fd37008c2aec000000060035
:102d2400135780000300e00001003200030001009b
:102d34000000060040ab2800f05f8800000022007d
:102d44005bfc070012672100820f5000e08f5800df
:102d540001003a00aa04070000000600c142a800ce
:102d640000000600101680004a00de0061006000ca
:102d740000000600889fbe008040eb000000eb00ce
:102d84004bff07008040eb001000200048ff0700c5
:102d94006044b8002c003700a2cabf0092c1b3003f
:102da4000440bc00a3002000110009000301d80066
:102db40080407800200020003dff0700a2cabf0029
:102dc40092c1b3000440bc0063ff2f00110009004e
:102dd4000301d800e64050003000200034ff070013
:102de400cbc2ab001200320061044400e0844c000a
:102df400009f240021002000800f5400818f5c007c
:102e040004003a00a1cfb3000000eb0028ff070044
:102e14000b00370000d4200031002000800f540044
:102e2400818f5c0006003a004e0007000400370062
:102e34008040eb000000eb001dff07006044b80079
:102e440024ff07000060fe00c6ff07000000e0004a
:102e5400d1ff3a004f04be000000060000027800d3
:102e6400a10020008001eb00300620000081410019
:102e74000201d10006e02f000403430005a128004d
:102e8400e54279008582fb00850f5300020036007d
:102e94008201780001003700020078008100e90017
:102ea400f2ff3a0000000600409c20006008880001
:102eb400f0fc2f0082088000820060000150a00016
:102ec4008108880011e1a800a10f20007108880082
:102ed4001201b6000050a0009008880013e1a80079
:042ee40000000600e4
:020000040000fa
:102ee800840a00002200000000000000040a00001c
:102ef800800000000000000000080000040200003c
:102f080000000000d20a00000600000000000000d7
:102f1800c60a00000c00000000000000d80a0000eb
:102f2800060000000200000000590000002c01000b
:102f3800de0a00000400000000000000a60a0000ed
:102f48002000000000000000e20a0000020000006b
:082f5800000000000000000071
:020000040000fa
:102f600060602000d3fb37006011b8008060200053
:102f7000d5fb07000000fe00000006008060200076
:102f8000ccfb0700525a2a0003002000020168000f
:102f9000838168008280710001f0a7008100ea004f
:102fa0008100e9004f08de0000000600525a2a00a6
:102fb0000300200080602000c3fb3700000e2000cb
:102fc0002023b7002043a8002343a80030fc2f0093
:102fd0002203b6000050a0001019880000f0210064
:102fe0002423b700f0c3b30024e3b70010c02f00c0
:102ff00060198800e03f20008019880021e3a800c4
:0430000000000600c6
:020000040000fa
:020000040001f9
:0257f000d5ffe3
:020000040000fa
:020000040001f9
:0257f400ffb400
:020000040000fa
:020000040001f9
:0257f800ae2bd6
:020000040000fa
:020000040001f9
:0257fc00e63e87
:00000001FF
